:100000000C9435010C9466010C9466010C94660105
:100010000C9466010C9466010C9466010C946601C4
:100020000C9466010C9466010C9466010C946601B4
:100030000C9466010C9466010C9466010C946601A4
:100040000C9466010C9466010C9466010C94660194
:100050000C9466010C9466010C9466010C949C024D
:100060000C9466010C9410030C94E6020C94660147
:100070000C9466010C9466010C9466010C94660164
:100080000C9466010C9466010C9466010C94660154
:100090000C9466010C9466010C9466010C94660144
:1000A0000C9466010C9466010C9466010C94660134
:1000B0000C9466010C9466010C9466010C94660124
:1000C0000C9466010C9466010C9466010C94660114
:1000D0000C9466010C9466010C9466010C94660104
:1000E0000C9466010C948F040C9449040C946D04D8
:1000F0000C9493040C9473040C9481040C94C60126
:100100000C9477040C9495010C94FE010C944B0212
:100110000C9468010C94E6040C9499040C944E041D
:100120000C9462040C948B040C947D040C94B80120
:100130000C946A040C9466040C945E040C9485047C
:100140000C949D040C94A4010000220025002800BA
:100150002B002E00310034000201000005010801CF
:100160000B0100002100240027002A002D00300090
:10017000330001010000040107010A010000200012
:100180002300260029002C002F003200000100006F
:10019000030106010901050505050705080808080A
:1001A000020202020A0A080804040404010101010F
:1001B000010101010303030303030303040707070A
:1001C0000C0C0C0C0C0C0C0C0202020206060606AF
:1001D000060606060B0B0B0B0B0B0B0B010210207C
:1001E000200808102040102040800201020108046D
:1001F0000201010204081020408080402010080401
:100200000201800402018040201008040201080459
:10021000020101020408102040800102040810209D
:10022000408000000A0B02090C0D0E0807030401B0
:1002300000000000000000000000000000000000BE
:10024000000000000000000000000000000012118B
:10025000100000000000000000000000000000008E
:100260000000000000000000E60411241FBECFEFD4
:10027000D1E2DEBFCDBF00E00CBF12E0A0E0B2E0F3
:10028000EAE8FAE000E00BBF02C007900D92AC3143
:10029000B107D9F722E0ACE1B2E001C01D92A63C63
:1002A000B207E1F711E0C5E3D1E000E006C0219715
:1002B0000109802FFE010E942705C433D10780E089
:1002C0000807A9F70E9446030C9443050C9400000C
:1002D000AF92BF92CF92DF92EF92FF920F931F9354
:1002E000CF93DF936C017B018B01040F151FEB0192
:1002F0005E01AE18BF08C017D10759F06991D60149
:10030000ED91FC910190F081E02DC6011995892BAA
:1003100079F7C501DF91CF911F910F91FF90EF9079
:10032000DF90CF90BF90AF900895FC01538D448D26
:10033000252F30E0842F90E0821B930B541710F090
:10034000CF96089501970895FC01918D828D98179D
:1003500061F0A28DAE0FBF2FB11D5D968C91928D75
:100360009F5F9F73928F90E008958FEF9FEF0895A6
:10037000FC01918D828D981731F0828DE80FF11D6F
:10038000858D90E008958FEF9FEF0895FC01918D8A
:10039000228D892F90E0805C9F4F821B91098F7383
:1003A000992708958CE192E00E94C60121E0892BF3
:1003B00009F420E0822F0895FC01A48DA80FB92F25
:1003C000B11DA35ABF4F2C91848D90E001968F737D
:1003D0009927848FA689B7892C93A089B1898C919C
:1003E000837080648C93938D848D981306C00288EB
:1003F000F389E02D80818F7D80830895EF92FF92B5
:100400000F931F93CF93DF93EC0181E0888F9B8D37
:100410008C8D98131AC0E889F989808185FF15C0F1
:100420009FB7F894EE89FF896083E889F989808114
:100430008370806480839FBF81E090E0DF91CF91E3
:100440001F910F91FF90EF900895F62E0B8D10E005
:100450000F5F1F4F0F731127E02E8C8D8E110CC074
:100460000FB607FCFACFE889F989808185FFF5CFBF
:10047000CE010E94DC01F1CFEB8DEC0FFD2FF11DC1
:10048000E35AFF4FF0829FB7F8940B8FEA89FB89FC
:1004900080818062CFCFCF93DF93EC01888D88235A
:1004A000B9F0AA89BB89E889F9898C9185FD03C0D7
:1004B000808186FD0DC00FB607FCF7CF8C9185FFBC
:1004C000F2CF808185FFEDCFCE010E94DC01E9CF24
:1004D000DF91CF91089580E090E0892B29F00E9470
:1004E000D20181110E94000080E090E0892B49F048
:1004F00080E090E0892B29F00E94000081110E9489
:10050000000080E090E0892B49F080E090E0892BAA
:1005100029F00E94000081110E94000080E090E01C
:10052000892B49F080E090E0892B29F00E9400009F
:1005300081110C94000008951F920F920FB60F9234
:1005400011242F933F938F939F93AF93BF938091E9
:10055000C2029091C302A091C402B091C502309131
:10056000C10223E0230F2D3758F50196A11DB11DBF
:100570002093C1028093C2029093C302A093C4024D
:10058000B093C5028091BD029091BE02A091BF02BE
:10059000B091C0020196A11DB11D8093BD02909340
:1005A000BE02A093BF02B093C002BF91AF919F91D2
:1005B0008F913F912F910F900FBE0F901F90189524
:1005C00026E8230F0296A11DB11DD2CF1F920F92D4
:1005D0000FB60F9211240BB60F922F933F934F93A8
:1005E0005F936F937F938F939F93AF93BF93EF939B
:1005F000FF938CE192E00E94DC01FF91EF91BF91AB
:10060000AF919F918F917F916F915F914F913F91AA
:100610002F910F900BBE0F900FBE0F901F9018954B
:100620001F920F920FB60F9211240BB60F922F93B9
:100630008F939F93EF93FF93E0912C02F0912D0203
:100640008081E0913202F091330282FD1DC09081E1
:10065000809135028F5F8F7320913602821741F0AF
:10066000E0913502F0E0E45EFD4F958F8093350216
:10067000FF91EF919F918F912F910F900BBE0F9053
:100680000FBE0F901F9018958081F2CF789484B59B
:10069000826084BD84B5816084BD85B5826085BD7E
:1006A00085B5816085BD80916E00816080936E000C
:1006B00010928100809181008260809381008091FE
:1006C00081008160809381008091800081608093AF
:1006D00080008091B10084608093B1008091B0006F
:1006E00081608093B000809191008260809391003E
:1006F0008091910081608093910080919000816051
:10070000809390008091A10082608093A1008091ED
:10071000A10081608093A1008091A00081608093FE
:10072000A0008091210182608093210180912101AC
:10073000816080932101809120018160809320015C
:1007400080917A00846080937A0080917A00826040
:1007500080937A0080917A00816080937A00809102
:100760007A00806880937A001092C1008FEF81B97F
:1007700080BB10920A0180930701C1E1D2E0FE0123
:1007800024910BEC11E0F80184918823C9F090E0EA
:10079000880F991FFC01EE59FE4FA591B491FC0101
:1007A000E85BFE4F459154913FB7F8949C91822F9E
:1007B000809598239C93FA019081892380833FBF81
:1007C000E0912C02F0912D0282E08083E0912802DA
:1007D000F09129021082E0912A02F0912B028FEC15
:1007E000808310923402E0913002F091310286E071
:1007F0008083E0912E02F0912F02808180618083BE
:10080000E0912E02F0912F02808188608083E09138
:100810002E02F0912F02808180688083E0912E0269
:10082000F0912F0280818F7D808397E5C92E92E021
:10083000D92E2AE0E22EF12C34E6A32EB12C3091F1
:100840000901F6012491FE014491F8019491992344
:1008500009F477C0222311F121502231F8F4E22F5C
:10086000F0E08827E95CFB4F8F4F0C942705660466
:100870006A0449045E0462044E046D047304770440
:100880007D04810485048B048F044E049304990431
:100890009D04809180008F7780938000E92FF0E0A5
:1008A000EE0FFF1FE458FE4FA591B4918C914823A1
:1008B00009F447C089E782B981BBFFCF80918000EE
:1008C0008F7DEACF80918000877FE6CF84B58F77D8
:1008D00084BDE4CF84B58F7DFBCF8091B0008F774E
:1008E0008093B000DBCF8091B0008F7DF9CF8091F5
:1008F00090008F7780939000D1CF809190008F7D72
:10090000F9CF80919000877FF5CF8091A0008F77FD
:100910008093A000C3CF8091A0008F7DF9CF8091FC
:10092000A000877FF5CF809120018F7780932001F1
:10093000B5CF809120018F7DF9CF80912001877FF5
:10094000F5CF232F30E0C901B7010E941305FC0148
:10095000243631054CF1CB01B7010E941305909369
:10096000BC028093BB02F093BA02E093B902C901C2
:10097000B5010E941305FB01EE5EFD4F808182B937
:10098000E091BB02F091BC02EE5EFD4F808181BB25
:10099000E091B902F091BA02EE5EFD4F8081809342
:1009A00008010E946B024BCF9093BA028093B90268
:1009B0006E5E7D4FFB01808182B9E091B902F091BA
:1009C000BA02EE5EFD4F808181BBEBCFECE1F2E03D
:1009D0001382128288EE93E0A0E0B0E084839583D6
:1009E000A683B78384E092E09183808385EC90E0D6
:1009F0009587848784EC90E09787868780EC90E0E9
:100A0000918B808B81EC90E0938B828B82EC90E0D9
:100A1000958B848B86EC90E0978B868B118E128E53
:100A2000138E148E089597FB072E16F4009407D0AA
:100A300077FD09D00E942F0507FC05D03EF4909564
:100A400081959F4F0895709561957F4F0895EE0FA2
:100A5000FF1F881F8BBF0790F691E02D1994AA1BEA
:100A6000BB1B51E107C0AA1FBB1FA617B70710F099
:100A7000A61BB70B881F991F5A95A9F780959095CB
:0A0A8000BC01CD010895F894FFCFEA
:100A8A0000000000FE01680195014B02C601A401A5
:0C0A9A00B8013F065B4F666D7D077F676B
:00000001FF
